S0110000536D617274486F6D652E7372656383
S3150000000028150020112A0000552800000D2A00009E
S315000000100D2A00000D2A00000D2A00000D2A0000FE
S3150000002000000000000000000000000001150000B4
S315000000300D2A0000000000001915000081150000BF
S31500000040611B0000E91A0000D51B0000091C000016
S3150000005051260000F521000000000000000000000D
S31500000060000000000000000000000000000000008A
S31500000070000000000000000000000000000000007A
S31500000080000000000000000000000000000000006A
S31500000090000000000000000000000000000000005A
S315000000A0000000000000000000000000000000004A
S315000000B0000000000000000000000000000000003A
S315000000C0000000000000000000000000000000002A
S315000000D0000000000000000000000000000000001A
S315000000E0000000000000000000000000000000000A
S315000000F000000000000000000000000000000000FA
S3150000010000000000000000000000000000000000E9
S3150000011000000000000000000000000000000000D9
S3150000012000000000000000000000000000000000C9
S3150000013000000000000000000000000000000000B9
S3150000014000000000000000000000000000000000A9
S315000001500000000000000000000000000000000099
S315000001600000000000000000000000000000000089
S315000001700000000000000000000000000000000079
S315000001800000000000000000000000000000000069
S315000001900000000000000000000000000000000059
S315000001A00000000000000000000000000000000049
S315000001B00000000000000000000000000000000039
S315000001C00348044B834202D0034B03B118477047E0
S315000001D05C0000205C00002000000000064B074980
S315000001E0C91A891048BF0131491003D0044B0BB11D
S315000001F001481847704700BF5C0000205C000020E3
S315000002000000000010B5064C237843B9FFF7D8FF6D
S31500000210044B13B10448AFF300800123237010BDD3
S315000002207800002000000000F879000008B5054BB2
S315000002301BB105490548AFF30080BDE80840FFF74C
S31500000240CDBF00BF000000007C000020F879000050
S31500000250022803D10249034801F0BABD704700BF26
S3150000026018730000A4030020002307B501938378C8
S3150000027023B9044B01A9186802F06CFE03B05DF8BF
S3150000028004FB00BF3802002010B5184B04461B784B
S315000002905BBB08B900F0BCF900F060F9B0B140F6FC
S315000002A0B7339C4207DDA1B2114800F061FFBDE8FB
S315000002B0104000F08BB9B4F57A7F16DDA1B20D4877
S315000002C000F056FFBDE8104000F0E4B9B4F57A7FBF
S315000002D007DCA1B2084800F04BFFBDE8104000F073
S315000002E097B940F6B7339C42E8DD10BDA400002064
S315000002F01C670000366700006267000010B57822B0
S315000003000021044604F056FC0023C4E91E33C4E968
S31500000310203310BD0022032313B51146009301209C
S31500000320134B02F0FBFC134B134C18601348FFF7FA
S31500000330E5FF1349134801F0E9FF206090B94FF635
S31500000340FF71114800F014FF10490E4802F072F8D0
S31500000350206050B94FF6FF710D4802B0BDE810405D
S3150000036000F006BF81B20B48ECE781B20A48F4E719
S315000003703C0200203802002034020020D400002075
S31500000380EC730000D00800207C670000D8730000E2
S31500000390A967000091670000D367000030B541B33C
S315000003A0D0F880303C2B0DD1826FD0F8844030F8E5
S315000003B012500132641BC0F8844092FBF3F403FB35
S315000003C014228267C26F3B2B20F81210D0F88440AB
S315000003D002F101020C444FF03C01C0F8844092FB4C
S315000003E0F1F401FB1422D8BF0133C267D8BFC0F8AD
S315000003F0803030BDD0F88030002BC3BFD0F88400E9
S31500000400B0FBF3F080B200207047FFFF38B5184C00
S315000004100021206802F098FE164801F021FF164DD3
S315000004204FF0FF312860206802F08EFE20B94FF6AB
S31500000430FF71124800F09CFE114C002122460D4827
S3150000044001F013FF286068B924883CB121460D48A5
S31500000450FFF7A4FF21460C4800F08AFE0948FFF783
S31500000460C9FF38BD81B2094800F082FE0020F8E7D6
S3150000047038020020D008002034020020FF67000068
S315000004805C010020D4000020316800003F680000B5
S3150000049008B5FFF73FFF0648FFF730FFFFF7B6FF47
S315000004A0FFF7F2FE4EF6602003F0A2FAF6E700BF71
S315000004B0D4000020F7B504468DF80710154601460E
S315000004C00DF10702134801F0F9FB134B06461860BD
S315000004D038B92F78043C9DF80730A4B21FB1012F1C
S315000004E00AD003B0F0BD002BFBD121460B4800F02B
S315000004F03FFE01232B70F4E7002BF2D0214608487B
S3150000050000F036FE074B2E7020461F7000F014FADE
S31500000510E7E700BFA4030020340200206368000060
S3150000052075680000A400002008B5084D084E094C67
S31500000530324629780520FFF7BDFF0620064A2178B6
S31500000540FFF7B8FF012003F053FAF1E7D3000020CC
S31500000550D1000020D2000020D0000020054B064A22
S315000005601B6812681343054A1268134314BF01201F
S3150000057000207047C4000020C0000020BC000020FE
S3150000058038B5002205460C4601F0CBFC084B186036
S31500000590084B9D4202D1084B1C6038BD074B9D425B
S315000005A001D1074BF8E7074B9D42F6D1064BF3E71F
S315000005B034020020CC090020C4000020EC090020F1
S315000005C0C00000200C0A0020BC000020002138B525
S315000005D0094B0A4D0A4C0B48196029602160FFF748
S315000005E0CFFF29680848FFF7CBFF21680748BDE819
S315000005F03840FFF7C5BF00BFC4000020C000002080
S31500000600BC000020CC090020EC0900200C0A0020C8
S315000006104FF47A7138B5094B094D0A4C0A481960EE
S3150000062029602160FFF7ACFF29680848FFF7A8FF9B
S3150000063021680748BDE83840FFF7A2BFC400002084
S31500000640C0000020BC000020CC090020EC090020DE
S315000006500C0A0020FFFFFFFF08B503F023FF00226E
S315000006600B4B04F0C3F89FED081B41EC100B04F094
S3150000067037FF002251EC100B054B03F08DFF04F001
S315000006809DF908BDAFF30080175D74D14517DD3FB6
S3150000069000408F4070B54FF4FA70FFF7DDFF0E4B48
S315000006A0044618604FF4FA70FFF7D6FF0B4E0C4D58
S315000006B030604FF4FA70FFF7CFFF214628600948F3
S315000006C0FFF75EFF31680848FFF75AFF29680748B9
S315000006D0BDE87040FFF754BFC4000020C0000020F2
S315000006E0BC000020CC090020EC0900200C0A0020E8
S315000006F008B501F097FB064B186030B94FF6FF714D
S315000007000448BDE8084000F033BD81B20248F8E76E
S3150000071034020020896800009A68000038B501F0AC
S3150000072081FC0C4B0C4C0D4D186078B94FF6FF71DF
S315000007300B4800F01DFD236C2B4043F0050323649A
S31500000740236C2B4043F00403236438BD81B2054873
S31500000750EFE700BF3402002000080840FE3FFEFF1E
S31500000760B3680000C368000008B501F065FB064BDE
S31500000770186030B94FF6FF710448BDE8084000F034
S31500000780F7BC81B20248F8E734020020DB680000BB
S31500000790F268000070B51C4E1C4D1D4C30461D49BC
S315000007A0FFF7BCFF28461C49FFF7B8FF20461B4948
S315000007B0FFF7B4FF30464FF47A71FFF7D5FF2846AE
S315000007C04FF47A71FFF7D0FF20464FF47A71FFF7A6
S315000007D0CBFF30464FF47A71FFF7D2FE28464FF42E
S315000007E07A71FFF7CDFE4FF47A712046FFF7C8FE07
S315000007F03046FFF77DFF2846FFF77AFF2046BDE823
S315000008007040FFF775BF00BFCC090020EC0900203F
S315000008100C0A00201874000074740000D0740000E4
S3150000082008B5FFF7B7FF012003F0E2F8FBE7FFFF8B
S3150000083008B5084B0848198800F09AFC074B084889
S31500000840198800F095FC074B07481988BDE8084051
S3150000085000F08EBCC40000200C690000C00000201F
S3150000086018690000BC000020246900002DE9F84F3B
S31500000870DFF8A0A0DFF8A090DFF8A0800446D9F842
S315000008800050DAF80000D8F8007040EA05033B4350
S3150000089010D14FF6FF711B4800F06AFC4FF47A71D5
S315000008A01948FFF76DFEBDE8F84F4FF47A71174807
S315000008B0FFF766BE4FF0030BB0FBFBF06043FFF79C
S315000008C0CBFE0646B5FBFBF06043FFF7C5FE0546CB
S315000008D0B7FBFBF06043FFF7BFFE044631460A480C
S315000008E0FFF74EFE29460A48FFF74AFE214607480B
S315000008F0FFF746FECAF80060C9F80050C8F8004085
S31500000900BDE8F88F30690000CC0900200C0A0020F1
S31500000910EC090020C4000020C0000020BC0000201C
S3150000092064284FF47A7328BF642058436423B0FBCD
S31500000930F3F0FFF791BEFFFF012838B537D1002548
S315000009403A4B29463A481D6000F012FC0323394A07
S315000009501468013494FBF3F303EB4303E41A012C0C
S31500000960146003D0022C10D0B4B138BD4FF47A71A4
S315000009703148FFF705FE29463048FFF701FE2946B4
S31500000980BDE838402E48FFF7FBBD29462A48FFF749
S31500000990F7FD4FF47A71EFE721462748FFF7F0FDA0
S315000009A021462648FFF7ECFD4FF47A71E8E7022866
S315000009B0DBD11E490B6801335A4202F0030203F0F1
S315000009C0030358BF53420B60032BCED8DFE803F076
S315000009D019020D131B48012100F0CAFB0120FFF785
S315000009E045FFBDE83840FFF723BF1748022100F056
S315000009F0BFFB0220F3E71548032100F0B9FB0320F3
S31500000A00EDE70021124800F0B3FB00220A48114628
S31500000A1001F087FA00220948114601F082FA002205
S31500000A200748114601F07DFADBE700BFC800002049
S31500000A3042690000CC000020CC090020EC0900200F
S31500000A400C0A00207369000093690000B069000079
S31500000A50CD690000F0B4224C224B227822B31A68EA
S31500000A60002A03DC204A1268002A1DDD1F4A204D99
S31500000A70D2E90001461C4FF0000041F10007C2E92F
S31500000A800067D2E90067B542B8410DD200210020C7
S31500000A90C2E90001144A1168002913DD1168013901
S31500000AA011600121134A11701B68B3B90E4B1B6804
S31500000AB09BB922788AB123700F4B1B7853B1F0BCD7
S31500000AC0FFF7A6BD19680029EBDD19680139196021
S31500000AD03B21E5E7F0BCFFF779BDF0BC704700BFEE
S31500000AE0B80000206401002060010020A80000205A
S31500000AF09F86010068010020B900002008B5002388
S31500000B001A4601F0B3F9064B4FF6FF71186020B98B
S31500000B100448BDE8084000F02BBB0348F9E700BFD6
S31500000B2034020020EA690000026A000010B5094C90
S31500000B3009492046FFF7F2FD20464FF47A71FFF788
S31500000B4013FE20460549FFF7D9FF2046BDE81040B1
S31500000B50FFF7CEBD980A002030750000550A000048
S31500000B60F8B5104B0D1E044681B20F4818BF184643
S31500000B7000F0FEFA002003460C49002601FB04F2B1
S31500000B8000270B49C1E9002301220A4BC3E900678C
S31500000B90094B1A70094B1D70094B1C60094B1860F4
S31500000BA0F8BD00BF1A6A0000346A0000808D5B0041
S31500000BB0B0000020A8000020B8000020B9000020E6
S31500000BC06401002060010020F0B50024254623467C
S31500000BD0164E174F8FB0325D0D2A01D10FB0F0BD02
S31500000BE0315D3C29CAB21DD03E2A14BF002103F054
S31500000BF0010161B17C2205F138036B44384601A935
S31500000C0003F8342C03F0DEFF00230134E3E7002B66
S31500000C10FAD0312DF9DC05F13801694401F8342C9C
S31500000C200135F2E700250123EFE700BFD0010020E0
S31500000C306901002008B54FF6FF711A4800F098FACE
S31500000C404FF6FF71184800F093FA4FF6FF711748F8
S31500000C5000F08EFA4FF6FF71154800F089FA4FF64C
S31500000C60FF71144800F084FA4FF6FF71124800F045
S31500000C707FFA4FF6FF71114800F07AFA4FF6FF71CE
S31500000C800F4800F075FA4FF6FF710E4800F070FA43
S31500000C904FF6FF710C4800F06BFA00220B4B1A80DE
S31500000CA008BD00BF4F6A00007F6A0000690100208E
S31500000CB0A16A0000B26A0000D36A0000E86A000078
S31500000CC0026B0000226B00003D6B0000CE0100208D
S31500000CD037B5044614F8013B542B35D8402B04D8BD
S31500000CE003B0BDE83040FFF7A5BF413B132BF7D853
S31500000CF001A252F823F000BF870E00009F0D0000EE
S31500000D00E10C0000E10C0000090F0000E10C0000FE
S31500000D107F0D0000E10C0000E10C0000E10C00007A
S31500000D20E10C0000E10C0000E10C0000E10C000009
S31500000D30C70E0000E10C0000E10C0000530D00009E
S31500000D404B0E0000BF0D0000613BDAB2132ACDD96D
S31500000D50C6E70122714B20461A7003F04FFEFFF7DB
S31500000D60DFFD044681B26E4800F002FA21466D4866
S31500000D70FFF706FC03B0BDE83040FFF759BD01227E
S31500000D80664B20461A7003F039FEFFF7C9FD04468C
S31500000D9081B2654800F0ECF921466448E8E7012293
S31500000DA05E4B20461A7003F029FEFFF7B9FD044694
S31500000DB081B25F4800F0DCF921465E48D8E701229F
S31500000DC0564B5D481A70002301A9ADF804308DF822
S31500000DD006302278855C6D0701D5022B18D10022DA
S31500000DE008336B4401A803F8042C03F007FE022223
S31500000DF005465249204603F0F4FE98B9FFF7AEFBCC
S31500000E0058B14FF6FF714E4800F0B2F903B030BD4D
S31500000E10013401F8012B0133DBE701212846FFF7F6
S31500000E209FFEF3E720460322464903F0DAFE044616
S31500000E3040B9FFF793FB18B94FF6FF714248E3E755
S31500000E402146EBE7FFF7F6FEE0E70024002100204D
S31500000E503E4B1C703E4BC3E90001324800F0E7FFF1
S31500000E60324800F0E4FF334800F0E1FF4FF6FF712F
S31500000E70384800F07DF923462146374AD1540133DC
S31500000E801E2BFBD1C2E7022220462C4903F0A9FE05
S31500000E90054638B94FF6FF71304800F069F91F4B27
S31500000EA01D70B3E703222046264903F09AFE002868
S31500000EB07FF416AF4FF6FF71294800F059F9012269
S31500000EC0164B1A70A2E743784E2B0CD1FFF7A0FB06
S31500000ED001224FF6FF71234B23481A7003B0BDE879
S31500000EE0304000F045B920460222204903F079FE41
S31500000EF0044600287FF4F4AEFFF768FB194B4FF663
S31500000F00FF711B481C70E9E703222046194903F0CC
S31500000F1068FE00287FF4E4AEFEE700BFA4000020D0
S31500000F205D6B0000CC090020806B0000EC090020FE
S31500000F30A36B00000C0A0020E6780000956C000008
S31500000F40C66B0000A16C0000F16B0000B800002029
S31500000F50A80000201C6C0000D0010020406C00009E
S31500000F60666C0000B90000208C6C0000A26C0000CA
S31500000F70986C0000596B000070B50E4803F059FEDE
S31500000F800446002003460B4DA34206DBBDE8704035
S31500000F9064220021074803F00DBEE95C5E1C7C2933
S31500000FA005D1834202DD2844FFF792FE30463346E0
S31500000FB0EAE700BF6901002008B5FFF7B7FD084C56
S31500000FC04FF0FF31206802F0BFF8012803D1FFF788
S31500000FD0FBFDFFF7D1FF012002F00AFDF0E700BF9D
S31500000FE09C00002013B50B4C237883B10A4B0B4AA7
S31500000FF01B6812683221009209480A4A03F086FDEE
S315000010004FF6FF71064800F0B3F80023237002B0D4
S3150000101010BD00BF680100206401002060010020AF
S3150000102002020020A56C0000002213B5037901928C
S31500001030022B05D0042B14D0012B2AD002B010BDF0
S31500001040154B01A9186801F085FF019B002BF5D00F
S315000010504FF08052114B5A60BFF34F8FBFF36F8F23
S31500001060ECE70F4B0F4C1A8892B2511C89B21980CB
S31500001070017AA154027A0D2A03D01A8892B21D2A47
S31500001080DCD900211A8892B2A1541980064B01A915
S31500001090D8E7034B1A80D1E7A000002000ED00E05E
S315000010A0CE010020D00100209C00002073B51F490E
S315000010B0012001F039FF032400221D4B1146186060
S315000010C000941C4B012001F029FE00221A4E114605
S315000010D030601A4B0094012001F020FE0022184DCA
S315000010E011462860174B0094012001F017FE164B9D
S315000010F0164C1860002330681A46194601F062FE45
S31500001100002328681A46194601F05CFE204610495D
S3150000111000F0D6FB002320461A460E4900F0B3FB2A
S3150000112000220D4B1A8002B070BD00BF8402002061
S3150000113094000020CC020020980000205C030020D0
S31500001140A0000020140300209C000020240B002097
S315000011509075000029100000CE01002008B5FFF7A9
S31500001160A5FFFFF73FFF4FF47A7002F041FCF8E766
S3150000117073B51B4E04460D4630684FF0FF3101F043
S31500001180E3FF01282AD14FF6FF739D421ED1224666
S315000011901449154803F0EEFC144C0021206801F0B8
S315000011A0D3FF114803F045FD0F490246104800F0F1
S315000011B049FB6421206801F0C7FF00231A4619463F
S315000011C0306802B0BDE8704001F0FCBD2346322114
S315000011D0084A0095044803F099FCDDE702B070BDAB
S315000011E094000020B56C000002020020A000002040
S315000011F0240B0020BE6C00007047FFF7FDBF00BE49
S315000012007047FFFF38B5134C4FF0FF31206801F0EF
S315000012109BFF012803D000212068FFF7F0FF0E4B4B
S315000012201A7842B901221A70FFF7E7FF0B4D2B68B7
S31500001230013B2B6003B938BD002320681A461946C6
S3150000124001F0C0FD0128F2D000212068FFF7D7FF8A
S31500001250EDE700BFC4080020C8080020CC08002025
S3150000126008B500230E4A012113600E4A4FF4807020
S3150000127013700D4A01F088FD0C4B0146186008B941
S31500001280FFF7BDFF00F00EF900F034F800F0D4F8D7
S3150000129000F09CF800F064F802F0D8F9002008BDD0
S315000012A0CC080020C80800207C080020C4080020C4
S315000012B0034B0360034B0B6080231360704700BF32
S315000012C01408002014060020034B0360034B0B6038
S315000012D080231360704700BFAC050020AC030020DC
S315000012E010B50446FFF78EFF2046BDE81040FFF715
S315000012F0CFB8FFFF1FB50E4A0E4913680E480133DB
S3150000130013600E4B4FF4807202930D4B0193012331
S3150000131000930C4B02F0A4F80B4B0146186020B961
S3150000132005B05DF804EBFFF76ABF05B05DF804FB96
S31500001330CC080020CB6C0000E1120000F808002069
S3150000134028150020D4730000F408002010B50446C8
S31500001350FFF758FF2046BDE81040FFF7E5B8FFFF4E
S315000013601FB50E4A0E4913680E48013313600E4B23
S315000013704FF4807202930D4B0193012300930C4BA3
S3150000138002F06EF80B4B0146186020B905B05DF807
S3150000139004EBFFF734BF05B05DF804FBCC08002072
S315000013A0D66C00004D1300006409002028190020A7
S315000013B0107400006009002010B50446FFF722FFF4
S315000013C02046BDE81040FFF72BBAFFFF1FB50E4AB7
S315000013D00E4913680E48013313600E4B4FF48072AA
S315000013E002930D4B0193012300930C4B02F038F846
S315000013F00B4B0146186020B905B05DF804EBFFF70A
S31500001400FEBE05B05DF804FBCC080020E46C0000CD
S31500001410B9130000300A0020281D002014740000B3
S315000014202C0A002010B50446FFF7ECFE2046BDE866
S315000014301040FFF7C1BDFFFF1FB50E4A0E491368E6
S315000014400E48013313600E4B4FF4807202930D4B1E
S315000014500193012300930C4B02F002F80B4B01465B
S31500001460186020B905B05DF804EBFFF7C8BE05B0FB
S315000014705DF804FBCC080020EF6C0000251400008A
S31500001480BC0A0020282100202C750000B80A002084
S3150000149010B50446FFF7B6FE2046BDE81040FFF73C
S315000014A05DBEFFFF1FB50E4A0E4913680E48013395
S315000014B013600E4B4FF4807202930D4B0193012380
S315000014C000930C4B01F0CCFF0B4B0146186020B982
S315000014D005B05DF804EBFFF792BE05B05DF804FBBE
S315000014E0CC080020FC6C000091140000580B002072
S315000014F0282500208C750000540B002000BEFEE756
S315000015001EF0040F0CBFEFF30880EFF309800149CA
S3150000151008470000A51500000F4B1968EFF3098274
S315000015201EF0100F08BF22ED108A22E9F04FEFF3EC
S315000015300B8342F8043D0A604FF0100080F31188D7
S31500001540BFF34F8FBFF36F8F02F07AFA4FF00000B0
S3150000155080F3118800F002B8E00E00200748016809
S315000015600A6802CA81F30B88B2E8F04F1EF0100F2A
S3150000157008BFB2EC108A82F309887047E00E00209B
S3150000158010B5EFF31184102383F3118802F0B8F835
S3150000159018B14FF08052024B5A6084F3118810BD87
S315000015A000ED00E008B5836913F8023C022B03D175
S315000015B0BDE80840FFF7D2BF032B06D94FF47E7172
S315000015C0024B034A034801F017F908BD086D0000F5
S315000015D0C8760000196D000040F8203C10B56FF089
S315000015E002034FF0807422F0010240F8082C054AED
S315000015F0283140F8044C40F80C2C40F8243C40F8C4
S31500001600481D10BDFD14000008B5EFF3118110232D
S3150000161083F311880A4A13680133012B13600DD135
S31500001620084B1960084B5B68C3F3080333B140F2FB
S31500001630A441064B064A074801F0DEF808BD00BF84
S31500001640C40B0020C00B002000ED00E03F6D000041
S31500001650B5760000196D000008B5094A136833B95C
S3150000166040F2AD41074B084A084801F0C5F8013B76
S3150000167013601BB9064B1B6883F3118808BD00BFB6
S31500001680C40B0020856D0000A3760000196D0000D4
S31500001690C00B002010B550B3154A938998B21BB2FF
S315000016A0002B0CDA4AF20254B2F8FE13A2F8FE43FB
S315000016B0002489B241F425419481A2F8FE13BFF3B8
S315000016C04F8F30BFBFF36F8F62B6BFF36F8F72B6A7
S315000016D0002B0CDA4AF20251054AB2F8FE33A2F8A0
S315000016E0FE139BB243F425439081A2F8FE3310BD4E
S315000016F000E0014008B572B601F0EEFF0120FFF7E9
S31500001700C9FF62B6BDE8084002F0BAB84FF47A7273
S31500001710094B1B68B3FBF2F3013BB3F1807F0AD29E
S315000017204FF0E022F0215361044B83F8231000238D
S315000017309361072313617047900D002000ED00E0D0
S31500001740F02208B50B4B83F82220FFF7DFFF0A4A89
S31500001750536B43F04043536362B6BFF36F8FEFF3AF
S31500001760148C2CF0040C8CF31488BFF36F8F02DFFB
S3150000177000BEFDE700ED00E000EF00E008B5EFF386
S315000017800382103A02F0FF0312060ED403F16043FF
S3150000179003F5614393F800331B0906D140F20F614C
S315000017A0074B084A084801F027F8084BDB685B0539
S315000017B004D540F22161064B024AF3E708BD00BF9B
S315000017C0976D000084760000196D000000ED00E0C2
S315000017D0CC6D0000EFF30380103840B27047FFFF76
S315000017E0054BC03053F8202022F4803243F82020E5
S315000017F053F82030704700BF0060004008B501462E
S31500001800FFF7EEFFBFF35F8F012201F01F039A403F
S315000018104B099B0003F1604303F56143C3F8802144
S315000018201A6008BD01220649430900F01F008240E4
S31500001830203341F82320BFF34F8FBFF36F8F7047DC
S3150000184000E100E010B5046AA37803F07B03A370FF
S31500001850837803F00303D21A02610B44026AC36061
S31500001860937843F0800393708378026A03F003034E
S31500001870022B09BF0B880B7843F47E43D38118BF34
S31500001880D370002010BDC0E90A32416200207047C3
S3150000189070B515460C4606461046FFF7C3FF2846A8
S315000018A0FFF79EFF240105F1604303F56143E4B2AF
S315000018B083F80043014B43F8256070BD040C0020FB
S315000018C00122F8B50B7804469A4012F0060F0D4631
S315000018D005D0CA6952681278110700F1DD8000262A
S315000018E0012703F5800303F58C531B022362267040
S315000018F0E5616B6920466362AB69C4E90A63A37854
S3150000190067F30103A3706B78B34214BF3A46022211
S31500001910A37862F30103A37095F90B20A97AFFF768
S31500001920B7FF204695F905202979FFF7B1FF204634
S3150000193095F90720A979FFF7ABFF204695F909200D
S31500001940297AFFF7A5FFEFF3108087F310884FF091
S315000019500041524B2F785A68F94022EA01025A6038
S315000019605B6880F31088236A9E70236A1E71236A5F
S315000019705E72236A9E72236ADE72236A5E8340F277
S3150000198019232A78D340DA0742BF4022236ADA7441
S315000019900622236A1A7740F219232A78D340DB07F6
S315000019A042BF4FF47842236A9A82EB78AA78DB002A
S315000019B043EA02136A78032A53D1F22243F0400322
S315000019C0216ADBB20B70236AD2B29A71EA690020EF
S315000019D0137B216A082B0EBF0A235B0003F0020368
S315000019E04B7353789178DB01490101F02001DBB29A
S315000019F00B43216A0872117802390129216A35D808
S31500001A00FF2048701278022A08BF43F01003226AAA
S31500001A10DBB2D3710026C4E90366C4E90566E3694F
S31500001A20EF6993F905003D78FFF7E8FEE36905F0F5
S31500001A30030593F90B00FFF7E1FEE36945F0700536
S31500001A4093F90700FFF7DAFEE36993F90900FFF758
S31500001A50D5FE3046236A9D707B892381104B6360D7
S31500001A60F8BD002A0CBFE222F222A9E7DBB2CB7155
S31500001A705268236A917859705078197860F3010199
S31500001A801970D1789974D979127801F0A30102F00E
S31500001A905C020A43DA71BDE70320E1E70040084033
S31500001AA055494353F0B5846A85B006468C461746B9
S31500001AB06D46B4B194E80F0085E80F00F36920463F
S31500001AC01B78C4F808C023602771F36AE360736A61
S31500001AD09847B46A1CB195E80F0084E80F0005B07A
S31500001AE0F0BD2C46EAE7FFFF08B5FFF773FE014697
S31500001AF0FFF776FE194B53F82100C3691B6923BB18
S31500001B000369026A5BB90021026A937803F07F03D6
S31500001B1043F004039370436AC160D3B908BD837868
S31500001B20C16803F00303022B09BF0B880B7843F44B
S31500001B307E43D38118BFD3708378026903F0030311
S31500001B40D21A0261C2681A44C2600369002BE5D149
S31500001B50D9E78022BDE80840FFF7A4BF040C0020A7
S31500001B6013B5FFF737FE0146FFF73AFE184B53F859
S31500001B702140A27802F00303022B236A0CBF198AC4
S31500001B805979A3690CBFC1F30801C9B2019143B9E0
S31500001B90636AD3B10422204602B0BDE81040FFF7C5
S31500001BA081BF02F0030201A9606903F035F8A3784A
S31500001BB06269A16903F003031A44C91A6261A1614B
S31500001BC019B9636A0BB10122E5E702B010BD00BF87
S31500001BD0040C002010B5FFF7FDFD0A4B044653F830
S31500001BE02000026A937803F07B039370436A1BB16B
S31500001BF002220021FFF756FF2046BDE81040FFF7FE
S31500001C00EFBD00BF040C002038B5FFF7E3FD134B12
S31500001C10044653F82000837803F00303022B036A7B
S31500001C200CBF198A59791D790CBFC1F30801C9B2D5
S31500001C3005F03802ED0604D51D7FED0758BF42F0CA
S31500001C4040021D7905F0C7051D71436A0BB1FFF708
S31500001C5029FF2046BDE83840FFF7C2BD040C00202E
S31500001C60EFF31080012383F31088064B196819B926
S31500001C70054AD1704021D1701A6801321A6080F38A
S31500001C8010887047000C0020000D0840EFF310810B
S31500001C90012383F31088074B1A6812B11A68013AB8
S31500001CA01A601A681AB9044BDA708022DA7081F366
S31500001CB010887047000C0020000D08400B0A1B011D
S31500001CC053FA81F1034B002053F82130C3F340034C
S31500001CD01370704700080840030A11F4803F30B5BE
S31500001CE0094AC0B24FEA03130AD01C1852F824500E
S31500001CF025F4803542F8245021F4803542F82450EA
S31500001D00034442F8231030BD000808402DE9F84F7F
S31500001D10074600264FF0010B1E4C3B88B34201D804
S31500001D20BDE8F88F4FF00008DFF86CA04FEAC6094F
S31500001D307B683AF8022B03EB09018988914218D196
S31500001D4053F809300BFA08F503F0B853B3F1807F66
S31500001D50EDB294F8BB3413D12B420AD1012000F026
S31500001D600FFE94F8BB342B43012084F8BB3400F0FB
S31500001D70DBFD08F10108B8F1030FD9D10136CCE734
S31500001D802B42F6D0012000F0FBFD94F8BB3423EA89
S31500001D900503E9E700E00140DA76000038B50546BC
S31500001DA00024FFF7B3FFFFF75BFF2A88A3B29A422E
S31500001DB003D8BDE83840FFF769BF6B68A2B203EBF2
S31500001DC0C20053F832108088FFF786FF0134ECE733
S31500001DD008B5034B03600846FFF7E0FF002008BD87
S31500001DE054524F50054BC03053F8202022F4803215
S31500001DF043F8202053F82030704700BF00600040B1
S31500001E0008B50146FFF7EEFFBFF35F8F01224B09CE
S31500001E1001F01F018A400249603341F8232008BDC2
S31500001E2000E100E0D0E9023200205A607047D0E9B4
S31500001E3002320020DA60704783684A1E9A66436859
S31500001E401B782BB9836849080139596583689965F8
S31500001E508368D96AC90707D45A664FF4AA02836809
S31500001E601A64D0E90232DA6000207047C0E906320F
S31500001E704161002070474FF0004382681361826819
S31500001E805361826893610023826853628268936219
S31500001E907047FFFF38B5041E11DB094D0901C9B2B1
S31500001EA02B1983F80013074B43F82420FFF7A8FFEC
S31500001EB00123620904F01F04A34045F8223038BD0F
S31500001EC000E100E0040C002030B58568AC6E0134FA
S31500001ED009B18C421FD8406813F0010F00786B6B74
S31500001EE00CBF03F01F03C3F30443032807D91B09E0
S31500001EF083F0010349B98BB90223536030BD03F067
S31500001F000C03181F43424341F4E78C4201D8002BCF
S31500001F10F2D10323F1E701391160EFE7002CEBD092
S31500001F20F7E72DE9F3410023154602F003084FF0C9
S31500001F30FF320646CDE900236A462B460F46FFF7D9
S31500001F40C3FFB2680199146BA9B915F0080F14BF45
S31500001F500423022315F0020F00981FBF03F1120C91
S31500001F6002EB8C025060B2680ABF4344133312334B
S31500001F7002EB830250606B0641BFB268136C43F4F8
S31500001F8080031364B8F1010F1BD024F44034022DF2
S31500001F9044EA01440CD129B101236A463946304648
S31500001FA0FFF792FF019B24F0407444EA036402E0C9
S31500001FB0B8F1000FF6D10020B3681C6302B0BDE88B
S31500001FC0F081022DE7D0EDE7F0B5836985B00546CF
S31500001FD00F46164601AC93B193E8070084E8070064
S31500001FE01F719E60EA6918461A606A699047AB6974
S31500001FF01BB194E8070083E8070005B0F0BD23464F
S31500002000EEE70B01022843EA811309D0032803D027
S3150000201000290CBF06200920184340F48070704741
S315000020200920F9E7F7B501220B7C0D4602FA03F306
S3150000203013F00F0FC3600CBF1346002341600374F7
S31500002040097C694B04460B441B0283606B69436140
S31500002050AB69C36100238361EE69EFF3108782F3F6
S3150000206010884FF00040614A95F810C0116920FAB7
S315000020700CF021EA00011161126987F310884FF410
S315000020802541A26820461160A268D362A268D36384
S31500002090A26893642A782B7A032A4FEAC353A2686C
S315000020A008BF43F480336968D362FFF7E4FEA36890
S315000020B0B2690139DA61A368F2694FF0FF3C1A622E
S315000020C0A3689966A368596600232A78CDE900C3F8
S315000020D0B76B002A40F081806B685B08013B009378
S315000020E0A268009B5365A26893652A78032A81BF7C
S315000020F0A268D365A2681366019B1A0642EA0342E8
S31500002100B36B73B9337823B171782878FFF779FF09
S315000021100743B3782BB1F1782878FFF772FF47EAC7
S3150000212000476368DB6993F83010C80741BF996AB6
S31500002130A06801F1FF31C16493F83010890741BFEF
S31500002140DB6AA16803F1FF330B650023A1688B638B
S31500002150A168C1F88830B36B3BB996F8213096F880
S3150000216020105B0743EA41331F4396F83030002BBB
S3150000217014BF4FF4A0014FF4AA01A36819642B7889
S31500002180012B04D10023A168CB64A1680B65A36869
S3150000219042F003015F63A36842F001021963A3687A
S315000021A01A63D4E90232DA60697C224695F9120094
S315000021B0FFF770FE224696F8221096F92400FFF7E4
S315000021C069FE96F92500224696F82310FFF762FE6F
S315000021D00020074B236003B0F0BD012A80D06A4679
S315000021E0E968FFF771FE7BE7901640000040084063
S315000021F05450470010B5EFF30381103949B2084631
S31500002200FFF7F0FD0E4B53F8214063681B78012B56
S315000022100CD1D4E902329A600023A268084693647E
S31500002220A268D364A2681365FFF7EAFD636933B158
S3150000223000222046BDE810401146FFF7C5BE10BD7E
S31500002240040C0020054BC03053F8202022F48032C5
S3150000225043F8202053F82030704700BF006000404C
S315000022600368828A00201A8070470368103133F8A9
S31500002270113000201380704710B5041E1BDB04F1DB
S3150000228060430901C9B203F5614383F800130A4BA1
S3150000229043F82420FFF7D6FFBFF35F8F012304F036
S315000022A01F026409A40004F16044934004F56144EC
S315000022B0C4F88031236010BD040C0020F0B5D0F8BE
S315000022C01CC007460C4689B0BCF1000F0FD06E4605
S315000022D065460FCD0FC695E80F0086E80F000FCCB8
S315000022E066460FC694E80F00644685E80F00204650
S315000022F0BB699847FC6934B16D460FCD0FC495E8AC
S315000023000F0084E80F0009B0F0BDFFFF2DE9F0478C
S315000023104E694160CB680D4683610B6904460362D2
S315000023200023C3610B885B0203F1804303F5B813F6
S31500002330036049698A78B2FA82F3B2F13F0018BFA6
S3150000234001205B091B0243EA4023A87843EA403395
S315000023500879002861D043F430739BB2A3828A784F
S31500002360C878120202F47C5200F03F0042EA0007ED
S315000023702A79E878D20342EA4002487891F800C008
S3150000238042EA4012EFF31089012080F31088DFF84B
S31500002390A0E0B5F800A0DEF80C80CAF1100A00FA39
S315000023A00AF028EA0000CEF80C00DEF80C0089F3EB
S315000023B0108823F4007320685B045B0C0380236899
S315000023C0BFB21F82236892B2DA81236883F80CC0F9
S315000023D08B795A1E53425341226882F8D030697A6B
S315000023E0224695F90600FFF747FF2246A97A95F996
S315000023F00700FFF741FF2246717A96F90700FFF7BB
S315000024003BFF96F908002246B17AFFF735FF002018
S31500002410064B2061A360BDE8F0873F2A0ABF43F45C
S31500002420024343F4107343F0400396E7434441529A
S3150000243000400840F0B50E684368076826F0C044BF
S31500002440B6B24A685D698B68BE80066822F0C04EE7
S3150000245092B2B282026823F0C04C9BB21381036829
S31500002460220CDA8003684FEA1E4EA3F816E00368D2
S315000024704FEA1C4CA3F80AC05C4B1A6A5C4BC2F3C9
S3150000248002661B68C2F30212B340D3404FF47A725D
S31500002490B3FBF2F341F236025343564AB3FBF2F36F
S315000024A0D1E900620133072B46EA020638BF07234B
S315000024B016F0005220D0EFF3108C012282F3108820
S315000024C04D4AD76827F48007D760D2688CF3108806
S315000024D090274A4A17700268DFB282F8DE700A68EF
S315000024E08F6812F0005F0CBF4FF480624FF4807269
S315000024F0BF0048BF42F0010276000FD50668DBB286
S3150000250086F8DF300B685F008B684CBF42F40072C0
S3150000251042F400625E0048BF42F00202036892B2D3
S315000025205A82CB68002B5FD0B3F808C01CF4006F4A
S315000025302CD00268A2F890C002685E89A2F89C605E
S3150000254002689E89A2F89E601A68066897B2A6F885
S315000025509470170C066827F4C047BFB2A6F89670A9
S315000025600668C2F3417286F892205A68066897B2E6
S31500002570A6F89870160C076826F4C046B6B2A7F8F7
S315000025809A600668C2F3417286F893201A8992050A
S315000025900DD59A7CDF7C06683A4386F8A620026849
S315000025A0DE89A2F8A86002681B8AA2F8AA3003682E
S315000025B0A3F890C003680A8AA3F880202B796BB130
S315000025C0B4FA84F4026813889BB223F01F031F3306
S315000025D01B1B9BB21380828A13438382084BC36002
S315000025E00B6803610020F0BD9C46E0E700E0014077
S315000025F0900D002040420F000040084000300F4080
S315000026004344415210B5014688B0EFF303830F4AA5
S31500002610103B5BB252F82340EFF30380103840B210
S31500002620FFF710FE63688DF802101B88ADF80030C6
S3150000263000238DF80830236A0193A3691BB169460C
S315000026402046FFF73BFE08B010BD00BF040C00207B
S315000026500020FFF7D7BFFFFF064B93F826101A6A34
S31500002660054BC2F3026253F82130D340034A13608C
S31500002670704700BF00E001405C000020900D002084
S315000026807047FFFF4AF2035208B5384BA3F8FE2302
S315000026900122A3F50053A3F80421B3F8040180B284
S315000026A00028FAD10122DFF8E4C0A3F80021304B5C
S315000026B0304A3149C3E900C24FF40042C3E902215E
S315000026C01A612E4A5A61FFF7C7FF0922274B83F882
S315000026D0130483F8A22093F880241AB993F881246E
S315000026E091073DD093F8802452B90121C82083F880
S315000026F0801400F089F81D4A92F88034012BFBD132
S3150000270000221A4B83F8812483F880240022174B79
S3150000271083F8322093F83C201207FBD543F20212CD
S315000027201A850022114883F82A2090F83C309B062F
S31500002730FBD50122124B83F81C21124B03620523A1
S3150000274080F82630FFF788FFF1220F4B1A7300221C
S315000027501A72F0221A734FF42543A0F8FE3308BD0F
S315000027604FF47A70FFF78CFFD0E700BF00E001401E
S315000027705C00002000127A0000366E0100C2EB0BEE
S3150000278000C001402112022100200040002D31012D
S3150000279038B50025164C0121C82084F8285000F0D1
S315000027A033F884F8245094F82430002BFBD194F8A5
S315000027B0243043F0020384F824300D4B93F8242090
S315000027C0C2F340019207F9D483F8221093F822202D
S315000027D002F0FF04002AF9D1012000F0D1F8054BE0
S315000027E0012083F8BB44BDE8384000F09DB800BF27
S315000027F00030084000E0014000BEFEE7A0F1010005
S315000028000028FBD17047FFFF10B4104B104A1B681D
S315000028104843B2FBF3F24FF47A73A0FB03143CB9BE
S31500002820B1FBF2F3980868B15DF8044BFFF7E6BF19
S315000028309200B0FBF2F0A0FB0303002BF3D04FF0A5
S31500002840FF30F1E75DF8044B704700BF900D0020A4
S3150000285000CA9A3B70B500250B4B0C4EB3F82021ED
S31500002860B3F84041A4B2144024FA05F3DB0704D5BB
S3150000287056F825300BB1E8B2984701350E2DF3D145
S31500002880014BA3F8304170BD00600040C80B00202A
S315000028907FB5032000F074F86FF0FF021E4B1F4C4B
S315000028A09A644FF0FF332546CDE9013303930126A1
S315000028B0002335F8022B6AB104A95A0901EB8202FA
S315000028C052F80C1C03F01F0006FA00F021EA000182
S315000028D042F80C1C0133602BEBD10199104B0E4AC8
S315000028E003201167C3F8801202995167C3F8841256
S315000028F003999167C3F8881200F016F80023094976
S3150000290034F8022B1AB103F1C00041F8202001333C
S31500002910602BF5D104B070BD00800040C475000086
S3150000292000E100E00060004010B5EFF310810123E4
S3150000293083F310880F4A32F810309BB22BB132F86D
S315000029401030013B9BB222F8103032F810309BB2A7
S3150000295063B9094A094CB2F8FE3334F810009BB249
S3150000296043F4254323EA0003A2F8FE3381F31088DB
S3150000297010BD00BF840D002000E00140E07600009D
S3150000298030B5EFF31084012383F310880D4A32F833
S3150000299010309BB263B90C490C4DB1F8FE3335F8D3
S315000029A010509BB22B4343F425439BB2A1F8FE3350
S315000029B032F8103001339BB222F8103084F31088BD
S315000029C030BD00BF840D002000E00140E07600002D
S315000029D008B50B4A0346116809B90A49116010681F
S315000029E00333094923F0030303448B4206D902F05B
S315000029F00BF90C2303604FF0FF3008BD1360FCE7B2
S31500002A008C0D0020281100202811002000BE7047E0
S31500002A1008B500F003F8FEF723FCFEE74FF470025A
S31500002A2070B52A4B2A4CC3F8882000209C60FDF71D
S31500002A300FFCFFF727FE0120FDF70AFC2368A3F52C
S31500002A40806383F30A882348234A0021121A02F07E
S31500002A50B1F82248224A2349121A02F0DDF800266C
S31500002A60214D224C641BA410A6422ADBFFF7F4FD7D
S31500002A70FFF78EFE0320FFF783FF4FF6FF72002459
S31500002A801B4B03201A825A829A82DA821A835A834D
S31500002A909A83DA83FFF748FF0320FFF771FF154B90
S31500002AA003205C609C60DC601C61FFF73DFF022038
S31500002AB0FDF7CEFBFFF7ECFE2046BDE8704000F0C8
S31500002AC01BB855F8043B98470136CDE700ED00E00A
S31500002AD000000000780000202811002000000020DF
S31500002AE05C000020247A00005400002058000020DA
S31500002AF0000D084000000E4070474FF0FF3200F115
S31500002B000803C0E9022343600361002303607047A2
S31500002B1000230361704730B50C68631C0AD1036952
S31500002B205A684A6091608B60596008610368013396
S31500002B30036030BD00F10802134652681568A542CD
S31500002B40FAD9EDE70369D0E901128A60416851605C
S31500002B505A68824204BF82685A60002202611A687B
S31500002B60013A1A601868704710B50446FEF74CFD26
S31500002B70A46BFEF771FDB4FA84F0400910BD70B580
S31500002B801646026C0446856B42B906689EB9806893
S31500002B9001F004F9A6600135A56370BD6EB9406801
S31500002BA002F03AF86368226C1344A26863609342A9
S31500002BB024BF236863600020EDE7C06802F02CF8AC
S31500002BC0226CE36851429B1A2268E36093423EBF3F
S31500002BD0A3685B18E360022EEDD10DB1013DEAE773
S31500002BE02846D8E703461A6C084610B46AB1DC6872
S31500002BF0996814448C4228BF1968DC6028BFD960E4
S31500002C00D9685DF8044B02F007B85DF8044B7047CD
S31500002C1070B50446FEF7F8FC94F8455004F1240616
S31500002C206DB2002D01DD636AB3B9FF2384F8453028
S31500002C30FEF712FDFEF7E8FC94F8445004F1100686
S31500002C406DB2002D01DD23697BB9FF2384F8443082
S31500002C50BDE87040FEF700BD304600F081FF08B1C8
S31500002C6001F03CF8013D6DB2DBE7304600F078FF3D
S31500002C7008B101F033F8013D6DB2E2E770B50E46DA
S31500002C80044630B94FF497711F4B204A2048FFF78E
S31500002C90B3FDC56B95B3036CA3FB053575BBFEF79A
S31500002CA0B3FCD4E90F314B432268A563D0185B1AF5
S31500002CB062601A44FF23A06084F84430E26084F81E
S31500002CC0453096B9236963B104F1100000F048FF5E
S31500002CD038B14FF080520F4B5A60BFF34F8FBFF39E
S31500002CE06F8FFEF7B9FC012070BD04F11000FFF7ED
S31500002CF004FF04F12400FFF700FFF2E740F263113E
S31500002D00054B024AC2E700BFF86D0000807700005D
S31500002D10006E000000ED00E02B6E000013B51C46AF
S31500002D2033B940F27711134B134A1448FFF764FD89
S31500002D3008B12AB131B94FF4D071114B0E4AF4E7FC
S31500002D400029F8D148230193019B482B04D040F277
S31500002D5089110C4B084AE8E7002908BF2246C4E956
S31500002D600F01226001212046019BFFF787FF2046C5
S31500002D7002B010BD4F6E000066770000006E0000C6
S31500002D80786E00005D6E000013B513460C4658B110
S31500002D90884209D30222009200221146FFF7BEFFA5
S31500002DA000B1846302B010BD40F24731024B034AC2
S31500002DB00348FFF721FD00BF836E00004277000045
S31500002DC0006E00002DE9F04385B00F461E4604460E
S31500002DD0019230B940F27D314C4B4D4A4D48FFF7D8
S31500002DE00BFD31B9036C23B140F27E314A4B484AA0
S31500002DF0F4E7022E07D1E36B012B04D040F27F31BA
S31500002E00464B434AEAE700F06FFF054620B300252C
S31500002E104FF00008DFF80891FEF7F6FBA26BE36BB4
S31500002E209A4221D2324639462046FFF7A8FE636A07
S31500002E301BB104F1240000F093FE38B14FF080522C
S31500002E40374B5A60BFF34F8FBFF36F8FFEF704FC0B
S31500002E50012005B0BDE8F083019B002BD8D040F2DD
S31500002E608231304B2A4AB9E7022EDBD0019B1BB9CF
S31500002E70FEF7F2FB0020ECE715B902A800F0E4FE2D
S31500002E80FEF7EAFB00F028FCFEF7BEFB94F84430A0
S31500002E90FF2B08BF84F8448094F84530FF2B08BF09
S31500002EA084F84580FEF7D8FB01A902A800F0D8FEF9
S31500002EB028BBFEF7A9FBA26BE36B9A420ED1FEF785
S31500002EC0CBFB019904F1100000F0FAFD2046FFF754
S31500002ED09FFE00F0D5FC48B101259DE7FEF7BCFB3F
S31500002EE02046FFF795FE00F0CBFCF5E74FF0805348
S31500002EF0C9F80430BFF34F8FBFF36F8FECE720465E
S31500002F00FFF786FE00F0BCFCB4E700BFF86D0000DA
S31500002F1030770000006E00008B6E0000E26E00004D
S31500002F2000ED00E02F6F0000002213B50B46009065
S31500002F3011460120FFF7F2FE044638B100231A4677
S31500002F40194683600360C360FFF73CFF204602B06A
S31500002F5010BDFFFFF8B50E46044630B940F2FA41FF
S31500002F60234B244A2448FFF747FC036C23B140F265
S31500002F70FE41224B1F4AF5E7036833B9836823B144
S31500002F8040F203511E4B1B4AECE7FEF7F7FBEFF34B
S31500002F901187102383F31188A36BE26B9A4224D91D
S31500002FA094F845200133FF2A55B2A3630DD1636A15
S31500002FB03BB104F1240000F0D3FD10B10EB10123A2
S31500002FC03360012087F31188F8BD00F093FB85423A
S31500002FD0F7D27F2D04D140F282510A4B054AC1E750
S31500002FE001356DB284F84550EBE70020EAE700BFF3
S31500002FF0F86D00001E770000006E0000A46F000050
S31500003000BD6F0000826F00002DE9F04385B00E46CB
S315000030100446019230B940F29C51454B454A464818
S31500003020FFF7EAFB31B9036C23B14FF4B461434BAC
S31500003030404AF4E700F058FE054618B300254FF065
S315000030400008DFF8FC90FEF7DFFAA76B17B33146EE
S315000030502046013FFFF7C6FDA763236963B104F16C
S31500003060100000F07DFD38B14FF08052344B5A60AD
S31500003070BFF34F8FBFF36F8FFEF7EEFA012005B057
S31500003080BDE8F083019B002BD9D040F2A5512D4B12
S31500003090284AC4E7019B1BB9FEF7DEFA0020EEE7DB
S315000030A015B902A800F0D0FDFEF7D6FA00F014FB21
S315000030B0FEF7AAFA94F84430FF2B08BF84F8448040
S315000030C094F84530FF2B08BF84F84580FEF7C4FA14
S315000030D001A902A800F0C4FDF0B92046FFF744FD9F
S315000030E0A0B1019904F1240000F0EAFC2046FFF7A4
S315000030F08FFD00F0C5FB38B94FF08053C9F8043096
S31500003100BFF34F8FBFF36F8F01259CE72046FFF774
S315000031107FFD00F0B5FBF7E72046FFF779FD00F0ED
S31500003120AFFB2046FFF720FD0028EDD0B6E700BF35
S315000031301E70000010770000006E00002A7000006C
S3150000314000ED00E02F6F00002DE9FF4104460191DC
S3150000315030B940F22E61514B514A5248FFF74CFBB1
S31500003160056C25B140F232614F4B4D4AF5E700F050
S31500003170BBFD064628B32E460027DFF83081FEF752
S3150000318043FAA36B2BB3013BA363236813B900F087
S31500003190ADFEA060236963B104F1100000F0E0FC0D
S315000031A038B14FF08052414B5A60BFF34F8FBFF397
S315000031B06F8FFEF751FA012004B0BDE8F081354665
S315000031C0DAE7019B002BFAD040F23761384B344ADC
S315000031D0C3E7019B1BB9FEF73FFA0020ECE716B9DF
S315000031E002A800F031FDFEF737FA00F075FAFEF797
S315000031F00BFA94F84430FF2B08BF84F8447094F817
S315000032004530FF2B08BF84F84570FEF725FA01A963
S3150000321002A800F025FD40BB2046FFF7A5FCF0B153
S3150000322023683BB9FEF7F0F9A06800F06DFD05468E
S31500003230FEF712FA019904F1240000F041FC204641
S31500003240FFF7E6FC00F01CFB38B94FF08053C8F8D6
S315000032500430BFF34F8FBFF36F8F01268FE72046F1
S31500003260FFF7D6FC00F00CFBF7E72046FFF7D0FC93
S3150000327000F006FB2046FFF777FC0028EDD0002D76
S31500003280ABD0FEF7C1F9616A19B1236B1968C1F1B8
S315000032900501A06800F0D2FD9DE700BF1E7000008A
S315000032A0FC760000006E0000A46F000000ED00E058
S315000032B02F6F000070B530B940F615310F4B104A2C
S315000032C01048FFF799FAB9B100230F4A1C46154674
S315000032D05668864204D105EBC403C3E900100BE02F
S315000032E01BB91668002E08BF134601340A2C02F1DA
S315000032F00802EDD1002BF0D170BD00BFF96D0000C2
S31500003300E8760000006E0000940D002070B50446BB
S315000033100D461646FEF778F994F84430FF2B04BFA5
S31500003320002384F8443094F84530FF2B04BF002373
S3150000333084F84530FEF790F9A36B2BB9324629463F
S3150000334004F1240000F0DAFB2046BDE87040FFF7E8
S315000033505FBCFFFFF8B506461A4B1B4C1D6820687C
S315000033600F460430FFF7EEFB731C13D197B1174BD2
S3150000337021685A688A6090682168C86021680431AB
S315000033804160216804319160226853611A680132F4
S315000033901A60F8BD2368AD195D6007D30C4B186839
S315000033A02168BDE8F8400431FFF7B5BB094B186842
S315000033B021680431FFF7AFFB074B1A68AA4288BFA2
S315000033C01D60E6E7040E0020E00E00200C0E002033
S315000033D04C0E0020500E0020E80D002008B5124CBF
S315000033E0124E134D236873B9124B1B68012B07D974
S315000033F04FF08052104B5A60BFF34F8FBFF36F8F61
S31500003400FEF778F9EDE7FEF7FFF8F368D8680430C1
S31500003410FFF798FB2B68013B2B602368013B236079
S31500003420FEF71AF9DEE700BF200E0020240E00206A
S31500003430080E00207C0E002000ED00E0064A13680E
S315000034401968064B19B94FF0FF321A6070471268B7
S31500003450D2681268F9E700BF500E0020E80D002080
S315000034602DE9F3470C9C0746DDE90A950E46924680
S31500003470984635B940F243215F4B604A6048FFF7F2
S31500003480BBF924B94FF411715E4B5C4AF6E7682329
S315000034900193019A9A4204D04FF413715A4B574A3A
S315000034A0ECE700212046019B01F084FB0AF18042F3
S315000034B0013A256305EB820525F007056EB1731EFB
S315000034C004F133020F3613F9011F02F8011F09B187
S315000034D0B342F8D1002384F84330B9F1040F04D97C
S315000034E040F29631494B4A4AC8E7261D3046C4F891
S315000034F02C90C4F84490FFF70BFB04F11800FFF77B
S3150000350007FBC9F1050143463A462846A1612461F5
S31500003510216B6462FEF760F82060FEF775F83D4B9C
S315000035203D4F1A68DFF81C8101321A603D68002D94
S3150000353056D13C601B68012B1FD1C1464846013558
S31500003540FFF7DBFA052D09F11409F7D1DFF8F8903A
S31500003550324D4846FFF7D1FA2846FFF7CEFA3048F3
S31500003560FFF7CBFA2F48FFF7C8FA2F48FFF7C5FA3F
S315000035702E4BC3F800902E4B1D602E4A1368013364
S3150000358013602D4AE36A11688B4288BF13601422C8
S3150000359002FB03835B68A3609968E1604E609E60EE
S315000035A0E36A534308EB0302626158F803200132D1
S315000035B048F80320FEF750F8204B1B6863B13B68C0
S315000035C0DA6AE36A9A4207D24FF080521C4B5A607D
S315000035D0BFF34F8FBFF36F8F204602B0BDE8F08771
S315000035E0164B1A68E36A002AC7D13A68D26A9A4229
S315000035F098BF3C60C1E700BFB57000009C78000032
S315000036008A700000D3700000EF700000087100009F
S3150000361087780000080E0020E00E0020540E0020DF
S31500003620380E0020240E00200C0E0020500E002024
S315000036304C0E0020EC0D0020000E0020FC0D00209A
S3150000364000ED00E07C0E0020680E002010B500247E
S3150000365088B007AA06A905A8CDE90544FDF728FE06
S31500003660059B079A0293069B1249CDE9004312482F
S315000036702346FFF7F5FE78B100F09CFD01280FD137
S3150000368080F310884FF0FF320C4B1A600C4B186019
S315000036900C4B1C60FEF754F80B4B1B6808B010BDB2
S315000036A00130F9D14FF40261084B094A0948FFF786
S315000036B0A3F800BF44710000DD330000E80D0020D0
S315000036C0FC0D0020040E0020B078000049710000B7
S315000036D0687800008A700000024A1368013313609C
S315000036E0704700BFE40D0020014B1868704700BF0B
S315000036F0040E0020014B1868704700BF080E00201A
S315000037002DE9F84F504B1B68002B40F097804F4B2C
S315000037101C6801341C60ACB94D4B1A68126832B192
S3150000372040F6F4214B4B4C4A4C48FFF765F84C4A9F
S3150000373019681068186011604A4A136801331360EB
S31500003740FFF77CFE484D00202B689C4206D2474B73
S315000037501B68002B18BF0120BDE8F88F84463C4F3C
S31500003760DFF814E14249DFF814813B681B681BB996
S315000037704FF0FF332B60EAE73B68DB68DB685A688B
S31500003780944201D22A60E2E7D3F814A0D3E9026298
S31500003790B2609E6803F104095660DAF804204A45CF
S315000037A004BFDA68CAF80420C3F814C0DAF80020A7
S315000037B0013ACAF80020D3F828A0BAF1000F14D0B5
S315000037C0D3E90762B260DE6903F1180B5660DAF8D6
S315000037D004205A4504BF1A6ACAF80420C3F828C050
S315000037E0DAF80020013ACAF800201426DA6ADEF870
S315000037F000A0524588BFCEF8002006FB0212526890
S315000038009A60D2F808A0C3F80CA0CAF80490C2F8CF
S315000038100890DA6A724302EB0109C3F8149051F872
S31500003820029009F1010941F80290D8F80090DA6A8D
S31500003830D9F82C309A4288BF012096E70D4A00201D
S3150000384013680133136087E7E40D0020040E00209F
S31500003850500E00205B710000467800008A70000060
S315000038604C0E0020F00D0020E80D0020F40D002085
S315000038707C0E0020F80D0020000E0020E00E002037
S315000038802DE9F84F4E4C236833B940F693014D4B62
S315000038904D4A4E48FEF7B0FFFDF7B6FE2368013BE2
S315000038A0236023682BB10024FDF7D6FE2046BDE831
S315000038B0F88F474A1268002AF5D098469E46142586
S315000038C04FF0010C4348444C4449DFF820B1444FC3
S315000038D055E0C368DB68D3F82890D3E90762B26085
S315000038E0DE6903F1180A5660D9F80420524504BF70
S315000038F01A6AC9F80420C3F82880D9F80020013ACA
S31500003900C9F80020D3F81490D3E90262B2609E6829
S3150000391003F1040A5660D9F80420524504BFDA6858
S31500003920C9F80420C3F814E0D9F80020013AC9F810
S315000039300020DA6AD4F800904A4588BF226005FB69
S31500003940021252689A60D2F80890C3F80C90C9F82F
S3150000395004A0C2F808A0DA6A6A4302EB0109C3F8B8
S31500003960149051F8029009F1010941F80290DBF830
S315000039700020DE6AD26A964201D9C7F800C0026802
S31500003980002AA6D10BB1FFF759FD164D2C6844B19C
S315000039900127134EFFF7B4FE00B13760013CF9D1A1
S315000039A02C600F4B1B68002B3FF47DAF4FF080520D
S315000039B00D4B5A60BFF34F8FBFF36F8F012473E730
S315000039C0E40D0020D1710000597800008A700000D3
S315000039D0080E0020380E0020000E00207C0E00206D
S315000039E0F40D0020F80D002000ED00E0E00E0020B0
S315000039F008B540B94FF080520C4B5A60BFF34F8F59
S31500003A00BFF36F8F08BD0A4B196831B14FF4A4613B
S31500003A10084B094A0948FEF7EFFEFFF75DFEFFF780
S31500003A2099FCFFF72DFF0028E4D0EBE700ED00E05E
S31500003A30E40D0020197100007C7800008A700000F7
S31500003A4070B5174B1A68174B12B101221A6070BD78
S31500003A501426154C1A602268144906FB02F3CD5849
S31500003A60C81895B1456808336D680B449D4208BF78
S31500003A70C368456008BF4360142303FB02114B680B
S31500003A80D9680B4B19602260E1E732B940F6334141
S31500003A90084B094A0948FEF7AFFE013ADDE700BFC9
S31500003AA0E40D0020F40D0020000E00207C0E002006
S31500003AB0E00E0020FC710000337800008A700000E0
S31500003AC010B50C4630B940F64B41084B084A094838
S31500003AD0FEF792FE084B19681831FFF71CF82046CE
S31500003AE0BDE810400121FFF735BC00BF0A72000097
S31500003AF01D7800008A700000E00E002070B50C46AC
S31500003B00114630B940F68141114B124A1248FEF770
S31500003B1073FE124B42681D680029EA6196681D68AB
S31500003B202E621D6805F1180575601D681B6805F194
S31500003B30180595609862036803F10103036008BFE6
S31500003B402046BDE8704018BF4FF0FF30FFF702BCBB
S31500003B500A720000FD7700008A700000E00E002067
S31500003B6038B5C368DB6833B940F6B1412D4B2E4AF0
S31500003B702E48FEF741FE9A6AD3E907018160D869AB
S31500003B804860516803F11800814204BF196A516008
S31500003B9000219962116801391160254A1268002ACC
S31500003BA033D1D3E902015A69816098684860516847
S31500003BB0181D814204BFD9685160002159611168FE
S31500003BC0013911601B49DA6A0C68A2424FF01404ED
S31500003BD088BF0A60184904FB021252689A60956809
S31500003BE0DD6068609060DA6A6243501858618858F0
S31500003BF001308850114A1168DA6ACB6A9A4285BF49
S31500003C0001200F4B0020186038BD0E4A5168D9615B
S31500003C108C681C626060886011689A62013111606C
S31500003C20E8E700BF16720000E47700008A70000023
S31500003C30E40D0020000E00207C0E0020E00E002087
S31500003C40F40D0020380E0020034B1B680360034B65
S31500003C501B684360704700BFF00D0020040E002073
S31500003C6070B50D46044630B940F62C51154B164A30
S31500003C701648FEF7C1FD21B940F62D51144B124AE4
S31500003C80F6E7FDF7C1FC134B19682B685A1C17D0D1
S31500003C901148266800686268864208D08A4206D8BB
S31500003CA0002301242B60FDF7D7FC204670BD881A3F
S31500003CB08342F5D95B1A134420462B60FFF7C4FFF5
S31500003CC00024F0E725720000CF7700008A7000001C
S31500003CD02F720000040E0020F00D00200122014B7F
S31500003CE01A607047F40D0020054B1B6833B1054B75
S31500003CF01868B0FA80F0400940007047012070470C
S31500003D00FC0D0020E40D0020F8B50446002831D053
S31500003D101F4DC36A2A68D26A934230D282691D4E09
S31500003D20002AA1BF2A68D26AC2F105028261142262
S31500003D3002FB036342699A421DD1071D3846FEF70E
S31500003D4001FF2B68144ADB6A1168E3628B4288BF65
S31500003D501360142202FB03635B68A3609968E16049
S31500003D604F609F60E36A5343F2186261F258013272
S31500003D70F2500120F8BD2B68DB6AC362F9E72B68B5
S31500003D80406CDB6A98422CBF00200120F2E700BF9E
S31500003D90E00E00207C0E0020000E002038B5044600
S31500003DA008B9002038BD1E4B1B68834206D041F27D
S31500003DB08C011C4B1C4A1D48FEF71EFD9B6C23B94B
S31500003DC041F28D011A4B184AF5E7C16A426C013B74
S31500003DD091428364E5D0002BE3D1051D2846FEF70A
S31500003DE0B1FE636CC3F10502A261124AE362116877
S31500003DF08B424FF0140188BF13600F4A01FB032367
S31500003E005B68A3609868E06045609D60E36A012096
S31500003E104B4399186161D1580131D150C2E700BFB7
S31500003E20E00E00203D720000B77700008A700000A7
S31500003E3053720000000E00207C0E002070B5044670
S31500003E40002843D0826C32B941F2DC01204B214A72
S31500003E502148FEF7D1FC436C994238BF1946C36A24
S31500003E608B4233D0012A31D11C4A1268824204D1D6
S31500003E7041F2F7011A4B174AEAE78269194D002AFF
S31500003E804FF0140202FB03534269C162A4BFC1F1A1
S31500003E90050181619A4219D1061D3046FEF752FE90
S31500003EA0114AE36A11688B4288BF1360142202FB31
S31500003EB003535B68A3609968E1604E609E60E36AA5
S31500003EC05343EA186261EA580132EA5070BD00BFF6
S31500003ED053720000937700008A700000E00E002005
S31500003EE0687200007C0E0020000E0020044B1A6849
S31500003EF01AB119688A6C01328A641868704700BF63
S31500003F00E00E0020914208B5416000610AD8D21A3D
S31500003F1083699A420DD2084B011D1868FEF7FBFD16
S31500003F20002008BD9A4201D2994202D2034B011DDC
S31500003F30F3E70120F5E700BFB00F0020B40F002023
S31500003F4070B504460D461646A1692B4632462046F4
S31500003F502944FFF7D7FF00B970BDA36920461D4469
S31500003F60236A9847F0E7FFFF70B50E4B05461B68BE
S31500003F700E46DB68DC68201DFEF7E4FD94F824306D
S31500003F805A0709D5324629462046FFF7D9FF20466B
S31500003F90236ABDE87040184723F0010384F82430F3
S31500003FA0F5E700BFB40F0020F8B50546FFF79CFB08
S31500003FB00D4E04463368834209D90C4F3B681A6894
S31500003FC052B90B4A116813603960012300E00023DF
S31500003FD02B6034602046F8BDDB684FF0FF3118686F
S31500003FE0FFF7C2FFEAE700BFA40F0020B40F0020CE
S31500003FF0B00F00202DE9FF414D4F4E4E3B68D3F8E0
S315000040000080B8F1000F34D00024DB68D3F80080BC
S31500004010FFF762FB01A8FFF7C7FF019B0546002BD0
S3150000402042D144BB40452CD3FFF72AFC29464046E3
S31500004030FFF79AFF0022306801A9FEF7E5FF002886
S31500004040DCD0019B002BF5DB039C636913B1201DBB
S31500004050FEF778FD6846FFF7A7FF019B0546013B83
S31500004060082BE7D8DFE803F023235D465D23235DB5
S3150000407046000124CCE7304B1B681C68B4FA84F474
S31500004080640922463068A8EB0501FFF73FF9FFF700
S31500004090F7FB0028CED14FF08052284B5A60BFF371
S315000040A04F8FBFF36F8FC5E7FFF7EAFBC2E794F8C0
S315000040B02430A16943F0010384F82430029B0246B0
S315000040C019442046FFF71EFF0028B3D094F8243089
S315000040D05A070AD5A36902992A4620461944FFF7CA
S315000040E02FFF2046236A9847A4E723F0010384F8AC
S315000040F02430F6E794F8243043F0010384F82430A2
S315000041000299A16131B94FF45D710D4B0D4A0E480C
S31500004110FEF772FB0346024601442046FFF7F2FE15
S3150000412088E794F8243023F0010384F8243081E7EB
S31500004130B40F0020AC0F0020B00F002000ED00E00F
S315000041407E720000B4780000A3720000F7B5114C2F
S31500004150FDF75AFA2568BDB90F4F104E3846FEF7DF
S31500004160CCFC3046FEF7C9FC0D4B0C211F600D4BF5
S315000041700A201E600C4A0D4B0095FEF7CFFD20600D
S3150000418010B10B49FFF796F803B0BDE8F040FDF714
S3150000419063BA00BFAC0F0020CC0F0020B80F002080
S315000041A0B40F0020B00F00202C0F0020E40E0020DA
S315000041B0CF72000010B588B0FFF7C8FF114B1B681F
S315000041C0B3B1002407AA06A905A8CDE90544FDF761
S315000041D07BF8059B079A0293069B0B4901930323E1
S315000041E00A4800932346FFF73BF9094B186030B99C
S315000041F040F21911074B084A0848FEF7FDFA01205C
S3150000420008B010BDAC0F0020D4720000F53F0000CE
S31500004210A80F0020DC720000CF780000A372000017
S3150000422081F0004102E000BF83F0004330B54FEA61
S3150000423041044FEA430594EA050F08BF90EA020FCE
S315000042401FBF54EA000C55EA020C7FEA645C7FEA61
S31500004250655C00F0E2804FEA5454D4EB5555B8BF84
S315000042606D420CDD2C4480EA020281EA030382EAF5
S31500004270000083EA010180EA020281EA0303362D87
S3150000428088BF30BD11F0004F4FEA01314FF4801C5A
S315000042904CEA113102D0404261EB410113F0004F6C
S315000042A04FEA03334CEA133302D0524263EB430323
S315000042B094EA050F00F0A780A4F10104D5F1200EC1
S315000042C00DDB02FA0EFC22FA05F2801841F100011C
S315000042D003FA0EF2801843FA05F359410EE0A5F1F0
S315000042E020050EF1200E012A03FA0EFC28BF4CF021
S315000042F0020C43FA05F3C01851EBE37101F00045D7
S3150000430007D54FF0000EDCF1000C7EEB00006EEBE3
S315000043100101B1F5801F1BD3B1F5001F0CD349086D
S315000043205FEA30004FEA3C0C04F101044FEA4452C4
S3150000433012F5800F80F09A80BCF1004F08BF5FEA4B
S31500004340500C50F1000041EB045141EA050130BD2B
S315000043505FEA4C0C404141EB0101013C28BFB1F53D
S31500004360801FE9D291F0000F04BF01460020B1FA88
S3150000437081F308BF2033A3F10B03B3F120020CDA5B
S315000043800C3208DD02F1140CC2F10C0201FA0CF039
S3150000439021FA02F10CE002F11402D8BFC2F1200C9E
S315000043A001FA02F120FA0CFCDCBF41EA0C01904054
S315000043B0E41AA2BF01EB0451294330BD6FEA04049D
S315000043C01F3C1CDA0C340EDC04F11404C4F1200288
S315000043D020FA04F001FA02F340EA030021FA04F39A
S315000043E045EA030130BDC4F10C04C4F1200220FAF1
S315000043F002F001FA04F340EA0300294630BD21FA2F
S3150000440004F0294630BD94F0000F83F4801306BFF4
S3150000441081F480110134013D4EE77FEA645C18BFE8
S315000044207FEA655C29D094EA050F08BF90EA020F7F
S3150000443005D054EA000C04BF1946104630BD91EA77
S31500004440030F1EBF0021002030BD5FEA545C05D17A
S315000044504000494128BF41F0004130BD14F58004B9
S315000044603CBF01F5801130BD01F0004545F0FE412D
S3150000447041F470014FF0000030BD7FEA645C1ABF62
S31500004480194610467FEA655C1CBF0B46024650EA99
S31500004490013406BF52EA033591EA030F41F40021C5
S315000044A030BD00BF90F0000F04BF0021704730B54B
S315000044B04FF4806404F132044FF000054FF0000120
S315000044C050E700BF90F0000F04BF0021704730B5E1
S315000044D04FF4806404F1320410F0004548BF4042B6
S315000044E04FF000013EE700BF42004FEAE2014FEA0B
S315000044F031014FEA02701FBF12F07F4393F07F4FE6
S3150000450081F06051704732F07F4208BF704793F0E8
S315000045107F4F04BF41F40021704730B54FF46074FB
S3150000452001F0004521F000411CE700BF50EA0102FE
S3150000453008BF704730B54FF000050AE050EA0102A7
S3150000454008BF704730B511F0004502D5404261EB17
S3150000455041014FF4806404F132045FEA915C3FF458
S31500004560D8AE4FF003025FEADC0C18BF03325FEAF5
S31500004570DC0C18BF033202EBDC02C2F1200300FAA6
S3150000458003FC20FA02F001FA03FE40EA0E0021FACB
S3150000459002F11444BDE600BF70B54FF0FF0C4CF4B9
S315000045A0E06C1CEA11541DBF1CEA135594EA0C0F6B
S315000045B095EA0C0F00F0DEF82C4481EA030621EAA6
S315000045C04C5123EA4C5350EA013518BF52EA0335E1
S315000045D041F4801143F4801338D0A0FB02CE4FF093
S315000045E00005E1FB02E506F00042E0FB03E54FF0C3
S315000045F00006E1FB03569CF0000F18BF4EF0010EBB
S31500004600A4F1FF04B6F5007F64F5407404D25FEAB6
S315000046104E0E6D4146EB060642EAC62141EA555169
S315000046204FEAC52040EA5E504FEACE2EB4F1FD0CAB
S3150000463088BFBCF5E06F1ED8BEF1004F08BF5FEA29
S31500004640500E50F1000041EB045170BD06F00046DB
S3150000465046EA010140EA020081EA0301B4EB5C0488
S31500004660C2BFD4EB0C0541EA045170BD41F4801180
S315000046704FF0000E013C00F3AB8014F1360FDEBFA5
S31500004680002001F0004170BDC4F10004203C35DA81
S315000046900C341BDC04F11404C4F1200500FA05F304
S315000046A020FA04F001FA05F240EA020001F00042A5
S315000046B021F0004110EBD37021FA04F642EB06011B
S315000046C05EEA430E08BF20EAD37070BDC4F10C0445
S315000046D0C4F1200500FA04F320FA05F001FA04F209
S315000046E040EA020001F0004110EBD37041F10001F5
S315000046F05EEA430E08BF20EAD37070BDC4F1200500
S3150000470000FA05F24EEA020E20FA04F301FA05F267
S3150000471043EA020321FA04F001F0004121FA04F20F
S3150000472020EA020000EBD3705EEA430E08BF20EADF
S31500004730D37070BD94F0000F0FD101F00046400019
S3150000474041EB010111F4801F08BF013CF7D041EA9B
S31500004750060195F0000F18BF704703F0004652009F
S3150000476043EB030313F4801F08BF013DF7D043EA70
S315000047700603704794EA0C0F0CEA135518BF95EA26
S315000047800C0F0CD050EA410618BF52EA4306D1D1AD
S3150000479081EA030101F000414FF0000070BD50EACC
S315000047A0410606BF1046194652EA430619D094EA56
S315000047B00C0F02D150EA013613D195EA0C0F05D140
S315000047C052EA03361CBF104619460AD181EA030194
S315000047D001F0004141F0FE4141F470014FF000004C
S315000047E070BD41F0FE4141F4780170BD70B54FF0E7
S315000047F0FF0C4CF4E06C1CEA11541DBF1CEA135567
S3150000480094EA0C0F95EA0C0F00F0A7F8A4EB050448
S3150000481081EA030E52EA03354FEA013100F088803F
S315000048204FEA03334FF0805545EA131343EA126308
S315000048304FEA022245EA111545EA10654FEA0026BD
S315000048400EF000419D4208BF964244F1FD0404F576
S31500004850407402D25B084FEA3202B61A65EB0305D2
S315000048605B084FEA32024FF480104FF4002CB6EB8F
S31500004870020E75EB030E22BFB61A754640EA0C000F
S315000048805B084FEA3202B6EB020E75EB030E22BF4F
S31500004890B61A754640EA5C005B084FEA3202B6EB90
S315000048A0020E75EB030E22BFB61A754640EA9C004F
S315000048B05B084FEA3202B6EB020E75EB030E22BF1F
S315000048C0B61A754640EADC0055EA060E18D04FEADD
S315000048D0051545EA16754FEA06164FEAC30343EA7D
S315000048E052734FEAC2025FEA1C1CC0D111F4801F4A
S315000048F00BD141EA00014FF000004FF0004CB6E743
S3150000490011F4801F04BF01430020B4F1FD0C88BFE1
S31500004910BCF5E06F3FF6AFAEB5EB030C04BFB6EBEC
S31500004920020C5FEA500C50F1000041EB045170BDDF
S315000049300EF0004E4EEA113114EB5C04C2BFD4EB0C
S315000049400C0541EA045170BD41F480114FF0000E90
S31500004950013C90E645EA060E8DE60CEA135594EA0C
S315000049600C0F08BF95EA0C0F3FF43BAF94EA0C0F0F
S315000049700AD150EA01347FF434AF95EA0C0F7FF484
S3150000498025AF104619462CE795EA0C0F06D152EAD8
S3150000499003353FF4FDAE1046194622E750EA4106BC
S315000049A018BF52EA43067FF4C5AE50EA41047FF4CD
S315000049B00DAF52EA43057FF4EBAE12E74A0011D27F
S315000049C012F5001211D20DD56FF47873B3EB625263
S315000049D00ED44FEAC12343F0004343EA505323FA6F
S315000049E002F070474FF00000704750EA013002D1E4
S315000049F04FF0FF3070474FF0000070470A22002149
S31500004A0000F07AB8242B2DE9F0478646904601D867
S31500004A10012B06D100F0F8F8162303600020BDE84C
S31500004A20F0870D4633482A4615F8014B065D16F009
S31500004A300806F8D12D2C10D12C780126951C33F0C0
S31500004A40100215D1302C0DD12A7802F0DF02582A37
S31500004A5008D16C78023510230AE02B2C04BF2C7881
S31500004A60951CECE7002BF6D1302C14BF0A23082343
S31500004A7006F1004C00220CF1FF3C1046BCFBF3F99A
S31500004A8003FB19CAA4F13007092F0FD83C46A342ED
S31500004A901BDD571C07D0814514D301D1A24511DB7C
S31500004AA000FB0340012215F8014BEBE7A4F1410797
S31500004AB0192F01D8373CEAE7A4F16107192F04D86A
S31500004AC0573CE4E74FF0FF32EDE7531C08D12223B1
S31500004AD06046CEF80030B8F1000FA0D0691E06E09F
S31500004AE006B14042B8F1000F99D0002AF6D1C8F8B5
S31500004AF0001094E7E678000013460A46014602488D
S31500004B000068FFF77FBF00BF040000200CB4184BFD
S31500004B1030B50C1E9DB01D6808DA8B234FF0FF30B0
S31500004B202B601DB0BDE8304002B070474FF40273F1
S31500004B300290069002A9ADF8143014BF04F1FF33B9
S31500004B402346209A2846049307934FF6FF73ADF841
S31500004B50163021AB019300F0C9F9431CBCBF8B236F
S31500004B602B60002CDDD0029B00221A70D9E700BF13
S31500004B70040000200EB400B59CB06FF000411DABE0
S31500004B8002900690079104910848094953F8042BAE
S31500004B90059102A90068019300F0A8F9029B002282
S31500004BA01A701CB05DF804EB03B0704704000020D7
S31500004BB00802FFFF02440346934200D1704703F800
S31500004BC0011BF9E7024610B5147813460132002C92
S31500004BD0FAD1013B11F8012B03F8012F002AF9D174
S31500004BE010BD10B56AB10139841810F8012B11F8FF
S31500004BF0013F9A4203D1A04201D0002AF5D1D01A32
S31500004C0010BD1046FCE7FFFF014B1868704700BF58
S31500004C1004000020704770470A44431E914200D1A9
S31500004C20704710B511F8014B914203F8014FF9D1C5
S31500004C3010BD034613F8012B002AFBD1181A0138C0
S31500004C407047FFFF38B50546002941D051F8043CAE
S31500004C500C1F002BB8BFE41800F0E0F81D4A1368DB
S31500004C6033B9636014602846BDE8384000F0DCB80C
S31500004C70A34208D9206821188B4201BF19685B68D6
S31500004C8009182160EDE71A465B680BB1A342FAD911
S31500004C9011685018A0420BD12068014450181160C9
S31500004CA08342E0D118685B68084453601060DAE715
S31500004CB002D90C232B60D6E7206821188B4202BF4D
S31500004CC019685B680918636008BF21605460CAE709
S31500004CD038BD00BF2411002070B50F4E0C460546A6
S31500004CE0316811B900F0A8FB30602146284600F073
S31500004CF0A3FB431C03D14FF0FF34204670BDC41CF8
S31500004D0024F00304A042F8D0211A284600F094FBB0
S31500004D100130F2D1EFE700BF201100202DE9F84362
S31500004D20CD1C064625F0030508350C2D38BF0C258D
S31500004D30002D01DBA94204D90C2333600020BDE815
S31500004D40F883DFF8D48000F069F8D8F800301C4604
S31500004D5044BB29463046FFF7BFFF431C044658D1E3
S31500004D60D8F800402746002F43D1002C4BD02368AB
S31500004D703946304604EB030900F05EFB814542D11B
S31500004D80216830466D1A2946FFF7A6FF01303AD052
S31500004D9023682B442360D8F800305A6862BBC8F8F1
S31500004DA000700FE02268521B20D40B2A17D9611914
S31500004DB0A342256018BF5960636808BFC8F8001091
S31500004DC062514B60304600F02FF804F10B00231DB2
S31500004DD020F00700C21A1CBF1B1AA350AFE7626877
S31500004DE0A3420CBFC8F800205A60EBE7234664686C
S31500004DF0AEE73C467F68B6E71A465B68A342FBD13E
S31500004E0000235360DEE70C233046336000F00CF8D5
S31500004E1094E70560D6E700BF241100200148FFF79C
S31500004E20F9BE00BF1C1100200148FFF7F4BE00BF09
S31500004E301C1100202DE9F0471F468E6882460C465D
S31500004E40BE4290460B682DD8B1F90C2012F4906F33
S31500004E5026D06569096905EB4505A3EB01097B1CAD
S31500004E6005EBD5754B446D109D4238BF1D46530565
S31500004E7027D52946FFF752FF064660B34A46216901
S31500004E80FFF7CAFEA38923F4906343F08003A3814E
S31500004E9026614E446561A5EB090526603E46A56080
S31500004EA0BE4200D93E4632464146206800F0AAFA84
S31500004EB0A36800209B1BA360236833442360BDE8DE
S31500004EC0F0872A4600F0D6FA06460028E0D1216986
S31500004ED05046FFF7B7FE0C234FF0FF30CAF80030FC
S31500004EE0A38943F04003A381E9E7FFFF2DE9F04FD3
S31500004EF098468B899DB007461B060D46144610D56D
S31500004F000B6973B94021FFF709FF2860286130B9A2
S31500004F100C233B604FF0FF301DB0BDE8F08F4023FF
S31500004F206B610023CDF80C804FF00109DFF8A081FA
S31500004F30099320238DF8293030238DF82A30234613
S31500004F409A4613F8012B0AB1252AF9D1BAEB040BBC
S31500004F500BD05B46224629463846FFF76BFF0130E9
S31500004F6000F0A780099A5A4409929AF80030002B5B
S31500004F7000F09F8000234FF0FF320AF1010A0493EC
S31500004F8007938DF853301A93CDE90523544605222D
S31500004F904F4814F8011B00F05FFA049AD8B9D006FE
S31500004FA044BF20238DF85330110744BF2B238DF8BF
S31500004FB053309AF800302A2B15D0079A5446002011
S31500004FC04FF00A0C214611F8013B303B092B4BD917
S31500004FD0B0B1079214E0A0EB0803A24609FA03F366
S31500004FE013430493D2E7039B191D1B68002B0391FF
S31500004FF0BBBF5B4242F0020207930793B8BF04921D
S3150000500023782E2B0AD163782A2B32D1039B0234C4
S315000050101A1D1B6843EAE37303920593DFF8C0A0E9
S3150000502003222178504600F017FA38B1A0EB0A00A7
S315000050304022049B013482401343049314F8011B5D
S31500005040062224488DF8281000F006FA002836D0EB
S31500005050214B1BBB039B073323F007030833039342
S31500005060099B334409936AE70CFB02320C46012084
S31500005070A8E7002301344FF00A0C19460593204691
S3150000508010F8012B303A092A03D9002BC6D0059116
S31500005090C4E70CFB012104460123F0E703AB2A46D3
S315000050A004A9384600930D4BAFF30080421C064618
S315000050B0D6D1AB895B063FF52DAF09982CE703AB3C
S315000050C02A4604A938460093044B00F07DF8EDE724
S315000050D0E4720000EE72000000000000354E000091
S315000050E0EA7200002DE9F047164698468A68074698
S315000050F00B690C46DDF820909342B8BF1346336027
S3150000510091F843200AB1013333602368990642BF00
S31500005110336802333360256815F0060506D104F1BD
S31500005120190AE36832689B1AAB422BDC94F84330C9
S315000051302268003B18BF0123920630D404F14302D3
S3150000514041463846C847013023D023681A3454F8FC
S315000051500A2C03F00603042B0ABF54F80E5C002544
S3150000516033684FF0000608BFED1A54F8123C08BF2A
S3150000517025EAE5759342C4BF9B1AED18B5421AD1CC
S31500005180002008E00123524641463846C847013010
S3150000519003D14FF0FF30BDE8F0870135C1E7E118D4
S315000051A05A1C30200233224481F8430094F84510FB
S315000051B082F84310C2E70123224641463846C847D3
S315000051C00130E6D00136D9E72DE9FF470F7E91463B
S315000051D080460C46782F9A460C9E01F1430207D86A
S315000051E0622F0AD8002F00F0D180582F00F0B88027
S315000051F004F1420684F842703AE0A7F16303152BE6
S31500005200F6D801A151F823F0615200007552000052
S31500005210F1510000F1510000F1510000F151000080
S3150000522075520000F1510000F1510000F1510000EB
S31500005230F1510000735300009F5200002D530000EF
S31500005240F1510000F151000095530000F1510000AA
S315000052509F520000F1510000F1510000355300004B
S3150000526033681A1D1B68326004F1420684F8423026
S3150000527001239CE033682068191D3160060601D5BC
S315000052801D6803E04506FBD5B3F90050002D03DA8F
S315000052902D236D4284F8433058480A2311E02168D3
S315000052A03368080653F8045B02D4490648BFADB21A
S315000052B06F2F3360514814BF0A230823002184F856
S315000052C043106668002EA66005DB21682E4321F098
S315000052D0040121604BD01646B5FBF3F103FB1157D1
S315000052E0C75D06F8017D2F460D46BB42F4D9082B53
S315000052F00BD12368DF0708D5236961689942DEBFB1
S31500005300302306F8013C06F1FF36921B22614B461C
S3150000531003AA21464046CDF800A0FFF7E3FE013080
S315000053204AD14FF0FF3004B0BDE8F087236843F060
S315000053302003236078273248236884F845701F06C7
S31500005340316851F8045B02D45F0648BFADB23160E4
S31500005350D90744BF43F0200323601DB11023ADE7F6
S315000053602648E9E7236823F020032360F6E716467C
S31500005370BDE733682568181D616930602E061B6815
S3150000538001D5196002E06806FBD519800023164690
S315000053902361BCE7336800211A1D32601E6862680B
S315000053A0304600F059F808B1801B606063682361DD
S315000053B0002384F84330AAE723693246494640462B
S315000053C0D0470130ADD023689B0713D4E068039B18
S315000053D09842B8BF1846A6E70123324649464046DA
S315000053E0D04701309DD00135E36803995B1AAB4283
S315000053F0F2DCEBE7002504F11906F5E7F57200008B
S3150000540006730000884210B501EB020402D98442FB
S31500005410234607D8431EA14208D011F8012B03F8F2
S31500005420012FF8E7024401468A4200D110BD13F865
S31500005430014D02F8014DF7E738B50023054D044646
S3150000544008462B60FDF7C4FA431C02D12B6803B152
S31500005450236038BD18110020C9B20346024410B5B6
S315000054609342184601D1002003E0047801338C42B0
S31500005470F6D110BD2DE9F041074614460D4621B977
S315000054801146BDE8F041FFF749BC2AB92546FFF7AA
S31500005490D9FB2846BDE8F08100F01AF8844206469A
S315000054A002D8B4EB500FF4D821463846FFF736FC45
S315000054B0804608B94546ECE7B4422246294628BF4D
S315000054C03246FFF7A9FB29463846FFF7BBFBF1E753
S315000054D051F8043C181F002BBCBF0B58C01870476E
S315000054E0F8B555EC114B2DED028B57EC106B00F017
S315000054F07FF822462B4620462946B0EE408AF0EE3B
